:100000000C942A000C943F000C943F000C943F0089
:100010000C943F000C943F000C943F000C943F0064
:100020000C943F000C943F000C943F000C943F0054
:100030000C943F000C943F000C943F000C943F0044
:100040000C943F000C943F000C943F000C943F0034
:100050000C943F0011241FBECFE5D8E0DEBFCDBF1A
:1000600010E0A0E6B0E0ECE0F1E002C005900D92F7
:10007000A63BB107D9F70E946D000C9484000C9444
:1000800000006250633050F4E62FF0E0EE0FFF1FE7
:10009000E456FF4F0190F081E02D02C0E2EAF0E06B
:1000A00050E0440F551F3097A1F0208130E0DC0173
:1000B0002D933C93E40FF51F0180F281E02DBFEFFB
:1000C00021EE34E0B15020403040E1F700C00000A4
:1000D000EACFDC011D921C9208958FEF81BB84BB97
:1000E00087BB40E063E088E390E00E94410040E08D
:1000F00062E085E390E00E94410041E064E082E339
:0C01000090E00E944100EDCFF894FFCF8A
:10010C000865006F00046A000000026F00650001C2
:10011C0000006A000979009700087E0000000C833B
:10012C000079000488007E00068D00830002920096
:10013C0088000397008D0001000092007400A2005B
:10014C00600009A700B1000CAC00000006B100A7CC
:06015C0000030000AC00EE
:00000001FF
